{
  "_format": "hh-sol-artifact-1",
  "contractName": "NFT",
  "sourceName": "contracts/NFT.sol",
  "abi": [
    {
      "inputs": [
        {
          "internalType": "address",
          "name": "marketplaceAddress",
          "type": "address"
        }
      ],
      "stateMutability": "nonpayable",
      "type": "constructor"
    },
    {
      "anonymous": false,
      "inputs": [
        {
          "indexed": true,
          "internalType": "address",
          "name": "owner",
          "type": "address"
        },
        {
          "indexed": true,
          "internalType": "address",
          "name": "approved",
          "type": "address"
        },
        {
          "indexed": true,
          "internalType": "uint256",
          "name": "tokenId",
          "type": "uint256"
        }
      ],
      "name": "Approval",
      "type": "event"
    },
    {
      "anonymous": false,
      "inputs": [
        {
          "indexed": true,
          "internalType": "address",
          "name": "owner",
          "type": "address"
        },
        {
          "indexed": true,
          "internalType": "address",
          "name": "operator",
          "type": "address"
        },
        {
          "indexed": false,
          "internalType": "bool",
          "name": "approved",
          "type": "bool"
        }
      ],
      "name": "ApprovalForAll",
      "type": "event"
    },
    {
      "anonymous": false,
      "inputs": [
        {
          "indexed": true,
          "internalType": "address",
          "name": "from",
          "type": "address"
        },
        {
          "indexed": true,
          "internalType": "address",
          "name": "to",
          "type": "address"
        },
        {
          "indexed": true,
          "internalType": "uint256",
          "name": "tokenId",
          "type": "uint256"
        }
      ],
      "name": "Transfer",
      "type": "event"
    },
    {
      "inputs": [
        {
          "internalType": "address",
          "name": "to",
          "type": "address"
        },
        {
          "internalType": "uint256",
          "name": "tokenId",
          "type": "uint256"
        }
      ],
      "name": "approve",
      "outputs": [],
      "stateMutability": "nonpayable",
      "type": "function"
    },
    {
      "inputs": [
        {
          "internalType": "address",
          "name": "owner",
          "type": "address"
        }
      ],
      "name": "balanceOf",
      "outputs": [
        {
          "internalType": "uint256",
          "name": "",
          "type": "uint256"
        }
      ],
      "stateMutability": "view",
      "type": "function"
    },
    {
      "inputs": [
        {
          "internalType": "string",
          "name": "tokenURI",
          "type": "string"
        }
      ],
      "name": "createToken",
      "outputs": [
        {
          "internalType": "uint256",
          "name": "",
          "type": "uint256"
        }
      ],
      "stateMutability": "nonpayable",
      "type": "function"
    },
    {
      "inputs": [],
      "name": "fetchNFTs",
      "outputs": [
        {
          "internalType": "uint256[]",
          "name": "",
          "type": "uint256[]"
        }
      ],
      "stateMutability": "view",
      "type": "function"
    },
    {
      "inputs": [
        {
          "internalType": "uint256",
          "name": "tokenId",
          "type": "uint256"
        }
      ],
      "name": "getApproved",
      "outputs": [
        {
          "internalType": "address",
          "name": "",
          "type": "address"
        }
      ],
      "stateMutability": "view",
      "type": "function"
    },
    {
      "inputs": [
        {
          "internalType": "address",
          "name": "owner",
          "type": "address"
        },
        {
          "internalType": "address",
          "name": "operator",
          "type": "address"
        }
      ],
      "name": "isApprovedForAll",
      "outputs": [
        {
          "internalType": "bool",
          "name": "",
          "type": "bool"
        }
      ],
      "stateMutability": "view",
      "type": "function"
    },
    {
      "inputs": [],
      "name": "name",
      "outputs": [
        {
          "internalType": "string",
          "name": "",
          "type": "string"
        }
      ],
      "stateMutability": "view",
      "type": "function"
    },
    {
      "inputs": [
        {
          "internalType": "uint256",
          "name": "tokenId",
          "type": "uint256"
        }
      ],
      "name": "ownerOf",
      "outputs": [
        {
          "internalType": "address",
          "name": "",
          "type": "address"
        }
      ],
      "stateMutability": "view",
      "type": "function"
    },
    {
      "inputs": [
        {
          "internalType": "uint256",
          "name": "_valueToFindAndRemove",
          "type": "uint256"
        },
        {
          "internalType": "uint256[]",
          "name": "_array",
          "type": "uint256[]"
        }
      ],
      "name": "remove",
      "outputs": [
        {
          "internalType": "uint256[]",
          "name": "",
          "type": "uint256[]"
        }
      ],
      "stateMutability": "pure",
      "type": "function"
    },
    {
      "inputs": [
        {
          "internalType": "uint256",
          "name": "tokenId",
          "type": "uint256"
        }
      ],
      "name": "removeMintedNFTOnSale",
      "outputs": [
        {
          "internalType": "uint256[]",
          "name": "",
          "type": "uint256[]"
        }
      ],
      "stateMutability": "nonpayable",
      "type": "function"
    },
    {
      "inputs": [
        {
          "internalType": "address",
          "name": "from",
          "type": "address"
        },
        {
          "internalType": "address",
          "name": "to",
          "type": "address"
        },
        {
          "internalType": "uint256",
          "name": "tokenId",
          "type": "uint256"
        }
      ],
      "name": "safeTransferFrom",
      "outputs": [],
      "stateMutability": "nonpayable",
      "type": "function"
    },
    {
      "inputs": [
        {
          "internalType": "address",
          "name": "from",
          "type": "address"
        },
        {
          "internalType": "address",
          "name": "to",
          "type": "address"
        },
        {
          "internalType": "uint256",
          "name": "tokenId",
          "type": "uint256"
        },
        {
          "internalType": "bytes",
          "name": "_data",
          "type": "bytes"
        }
      ],
      "name": "safeTransferFrom",
      "outputs": [],
      "stateMutability": "nonpayable",
      "type": "function"
    },
    {
      "inputs": [
        {
          "internalType": "address",
          "name": "operator",
          "type": "address"
        },
        {
          "internalType": "bool",
          "name": "approved",
          "type": "bool"
        }
      ],
      "name": "setApprovalForAll",
      "outputs": [],
      "stateMutability": "nonpayable",
      "type": "function"
    },
    {
      "inputs": [
        {
          "internalType": "bytes4",
          "name": "interfaceId",
          "type": "bytes4"
        }
      ],
      "name": "supportsInterface",
      "outputs": [
        {
          "internalType": "bool",
          "name": "",
          "type": "bool"
        }
      ],
      "stateMutability": "view",
      "type": "function"
    },
    {
      "inputs": [],
      "name": "symbol",
      "outputs": [
        {
          "internalType": "string",
          "name": "",
          "type": "string"
        }
      ],
      "stateMutability": "view",
      "type": "function"
    },
    {
      "inputs": [
        {
          "internalType": "uint256",
          "name": "tokenId",
          "type": "uint256"
        }
      ],
      "name": "tokenURI",
      "outputs": [
        {
          "internalType": "string",
          "name": "",
          "type": "string"
        }
      ],
      "stateMutability": "view",
      "type": "function"
    },
    {
      "inputs": [
        {
          "internalType": "address",
          "name": "from",
          "type": "address"
        },
        {
          "internalType": "address",
          "name": "to",
          "type": "address"
        },
        {
          "internalType": "uint256",
          "name": "tokenId",
          "type": "uint256"
        }
      ],
      "name": "transferFrom",
      "outputs": [],
      "stateMutability": "nonpayable",
      "type": "function"
    },
    {
      "inputs": [
        {
          "internalType": "uint256",
          "name": "tokenId",
          "type": "uint256"
        },
        {
          "internalType": "string",
          "name": "tokenURI",
          "type": "string"
        }
      ],
      "name": "updateTokenURI",
      "outputs": [
        {
          "internalType": "uint256",
          "name": "",
          "type": "uint256"
        }
      ],
      "stateMutability": "nonpayable",
      "type": "function"
    }
  ],
  "bytecode": "0x60806040523480156200001157600080fd5b506040516200361e3803806200361e8339818101604052810190620000379190620001e6565b6040518060400160405280600d81526020017f5069742053746f70204e465473000000000000000000000000000000000000008152506040518060400160405280600581526020017f50545354500000000000000000000000000000000000000000000000000000008152508160009080519060200190620000bb9291906200011f565b508060019080519060200190620000d49291906200011f565b50505080600860006101000a81548173ffffffffffffffffffffffffffffffffffffffff021916908373ffffffffffffffffffffffffffffffffffffffff16021790555050620002c5565b8280546200012d9062000246565b90600052602060002090601f0160209004810192826200015157600085556200019d565b82601f106200016c57805160ff19168380011785556200019d565b828001600101855582156200019d579182015b828111156200019c5782518255916020019190600101906200017f565b5b509050620001ac9190620001b0565b5090565b5b80821115620001cb576000816000905550600101620001b1565b5090565b600081519050620001e081620002ab565b92915050565b600060208284031215620001f957600080fd5b60006200020984828501620001cf565b91505092915050565b60006200021f8262000226565b9050919050565b600073ffffffffffffffffffffffffffffffffffffffff82169050919050565b600060028204905060018216806200025f57607f821691505b602082108114156200027657620002756200027c565b5b50919050565b7f4e487b7100000000000000000000000000000000000000000000000000000000600052602260045260246000fd5b620002b68162000212565b8114620002c257600080fd5b50565b61334980620002d56000396000f3fe608060405234801561001057600080fd5b50600436106101165760003560e01c80636352211e116100a2578063a22cb46511610071578063a22cb46514610319578063b88d4fde14610335578063c87b56dd14610351578063e985e9c514610381578063f26dc85c146103b157610116565b80636352211e1461027d57806370a08231146102ad57806378f04baf146102dd57806395d89b41146102fb57610116565b806318e97fd1116100e957806318e97fd1146101b557806323b872dd146101e55780633d50a4861461020157806342842e0e1461023157806345576f941461024d57610116565b806301ffc9a71461011b57806306fdde031461014b578063081812fc14610169578063095ea7b314610199575b600080fd5b61013560048036038101906101309190612201565b6103e1565b6040516101429190612797565b60405180910390f35b6101536104c3565b60405161016091906127b2565b60405180910390f35b610183600480360381019061017e9190612294565b610555565b604051610190919061270e565b60405180910390f35b6101b360048036038101906101ae91906121c5565b6105da565b005b6101cf60048036038101906101ca9190612311565b6106f2565b6040516101dc91906129d4565b60405180910390f35b6101ff60048036038101906101fa91906120bf565b610707565b005b61021b600480360381019061021691906122bd565b610767565b6040516102289190612775565b60405180910390f35b61024b600480360381019061024691906120bf565b6108f5565b005b61026760048036038101906102629190612253565b610915565b60405161027491906129d4565b60405180910390f35b61029760048036038101906102929190612294565b6109df565b6040516102a4919061270e565b60405180910390f35b6102c760048036038101906102c2919061205a565b610a91565b6040516102d491906129d4565b60405180910390f35b6102e5610b49565b6040516102f29190612775565b60405180910390f35b610303610bde565b60405161031091906127b2565b60405180910390f35b610333600480360381019061032e9190612189565b610c70565b005b61034f600480360381019061034a919061210e565b610c86565b005b61036b60048036038101906103669190612294565b610ce8565b60405161037891906127b2565b60405180910390f35b61039b60048036038101906103969190612083565b610e3a565b6040516103a89190612797565b60405180910390f35b6103cb60048036038101906103c69190612294565b610ece565b6040516103d89190612775565b60405180910390f35b60007f80ac58cd000000000000000000000000000000000000000000000000000000007bffffffffffffffffffffffffffffffffffffffffffffffffffffffff1916827bffffffffffffffffffffffffffffffffffffffffffffffffffffffff191614806104ac57507f5b5e139f000000000000000000000000000000000000000000000000000000007bffffffffffffffffffffffffffffffffffffffffffffffffffffffff1916827bffffffffffffffffffffffffffffffffffffffffffffffffffffffff1916145b806104bc57506104bb82611055565b5b9050919050565b6060600080546104d290612c8f565b80601f01602080910402602001604051908101604052809291908181526020018280546104fe90612c8f565b801561054b5780601f106105205761010080835404028352916020019161054b565b820191906000526020600020905b81548152906001019060200180831161052e57829003601f168201915b5050505050905090565b6000610560826110bf565b61059f576040517f08c379a000000000000000000000000000000000000000000000000000000000815260040161059690612954565b60405180910390fd5b6004600083815260200190815260200160002060009054906101000a900473ffffffffffffffffffffffffffffffffffffffff169050919050565b60006105e5826109df565b90508073ffffffffffffffffffffffffffffffffffffffff168373ffffffffffffffffffffffffffffffffffffffff161415610656576040517f08c379a000000000000000000000000000000000000000000000000000000000815260040161064d90612994565b60405180910390fd5b8073ffffffffffffffffffffffffffffffffffffffff1661067561112b565b73ffffffffffffffffffffffffffffffffffffffff1614806106a457506106a38161069e61112b565b610e3a565b5b6106e3576040517f08c379a00000000000000000000000000000000000000000000000000000000081526004016106da90612894565b60405180910390fd5b6106ed8383611133565b505050565b60006106fe83836111ec565b82905092915050565b61071861071261112b565b82611260565b610757576040517f08c379a000000000000000000000000000000000000000000000000000000000815260040161074e906129b4565b60405180910390fd5b61076283838361133e565b505050565b60606000600183516107799190612ba5565b67ffffffffffffffff8111156107b8577f4e487b7100000000000000000000000000000000000000000000000000000000600052604160045260246000fd5b6040519080825280602002602001820160405280156107e65781602001602082028036833780820191505090505b509050600080600090505b84518110156108e95785858281518110610834577f4e487b7100000000000000000000000000000000000000000000000000000000600052603260045260246000fd5b6020026020010151146108d65784818151811061087a577f4e487b7100000000000000000000000000000000000000000000000000000000600052603260045260246000fd5b60200260200101518383815181106108bb577f4e487b7100000000000000000000000000000000000000000000000000000000600052603260045260246000fd5b60200260200101818152505081806108d290612cf2565b9250505b80806108e190612cf2565b9150506107f1565b50819250505092915050565b61091083838360405180602001604052806000815250610c86565b505050565b600061092160076115a5565b600061092d60076115bb565b9050600960003373ffffffffffffffffffffffffffffffffffffffff1673ffffffffffffffffffffffffffffffffffffffff16815260200190815260200160002081908060018154018082558091505060019003906000526020600020016000909190919091505561099f33826115c9565b6109a981846111ec565b6109d6600860009054906101000a900473ffffffffffffffffffffffffffffffffffffffff166001610c70565b80915050919050565b6000806002600084815260200190815260200160002060009054906101000a900473ffffffffffffffffffffffffffffffffffffffff169050600073ffffffffffffffffffffffffffffffffffffffff168173ffffffffffffffffffffffffffffffffffffffff161415610a88576040517f08c379a0000000000000000000000000000000000000000000000000000000008152600401610a7f906128d4565b60405180910390fd5b80915050919050565b60008073ffffffffffffffffffffffffffffffffffffffff168273ffffffffffffffffffffffffffffffffffffffff161415610b02576040517f08c379a0000000000000000000000000000000000000000000000000000000008152600401610af9906128b4565b60405180910390fd5b600360008373ffffffffffffffffffffffffffffffffffffffff1673ffffffffffffffffffffffffffffffffffffffff168152602001908152602001600020549050919050565b6060600960003373ffffffffffffffffffffffffffffffffffffffff1673ffffffffffffffffffffffffffffffffffffffff168152602001908152602001600020805480602002602001604051908101604052809291908181526020018280548015610bd457602002820191906000526020600020905b815481526020019060010190808311610bc0575b5050505050905090565b606060018054610bed90612c8f565b80601f0160208091040260200160405190810160405280929190818152602001828054610c1990612c8f565b8015610c665780601f10610c3b57610100808354040283529160200191610c66565b820191906000526020600020905b815481529060010190602001808311610c4957829003601f168201915b5050505050905090565b610c82610c7b61112b565b83836117a3565b5050565b610c97610c9161112b565b83611260565b610cd6576040517f08c379a0000000000000000000000000000000000000000000000000000000008152600401610ccd906129b4565b60405180910390fd5b610ce284848484611910565b50505050565b6060610cf3826110bf565b610d32576040517f08c379a0000000000000000000000000000000000000000000000000000000008152600401610d2990612934565b60405180910390fd5b6000600660008481526020019081526020016000208054610d5290612c8f565b80601f0160208091040260200160405190810160405280929190818152602001828054610d7e90612c8f565b8015610dcb5780601f10610da057610100808354040283529160200191610dcb565b820191906000526020600020905b815481529060010190602001808311610dae57829003601f168201915b505050505090506000610ddc61196c565b9050600081511415610df2578192505050610e35565b600082511115610e27578082604051602001610e0f9291906126ea565b60405160208183030381529060405292505050610e35565b610e3084611983565b925050505b919050565b6000600560008473ffffffffffffffffffffffffffffffffffffffff1673ffffffffffffffffffffffffffffffffffffffff16815260200190815260200160002060008373ffffffffffffffffffffffffffffffffffffffff1673ffffffffffffffffffffffffffffffffffffffff16815260200190815260200160002060009054906101000a900460ff16905092915050565b60606000610f6983600960003373ffffffffffffffffffffffffffffffffffffffff1673ffffffffffffffffffffffffffffffffffffffff168152602001908152602001600020805480602002602001604051908101604052809291908181526020018280548015610f5f57602002820191906000526020600020905b815481526020019060010190808311610f4b575b5050505050610767565b905080600960003373ffffffffffffffffffffffffffffffffffffffff1673ffffffffffffffffffffffffffffffffffffffff1681526020019081526020016000209080519060200190610fbe929190611d9b565b50600960003373ffffffffffffffffffffffffffffffffffffffff1673ffffffffffffffffffffffffffffffffffffffff16815260200190815260200160002080548060200260200160405190810160405280929190818152602001828054801561104857602002820191906000526020600020905b815481526020019060010190808311611034575b5050505050915050919050565b60007f01ffc9a7000000000000000000000000000000000000000000000000000000007bffffffffffffffffffffffffffffffffffffffffffffffffffffffff1916827bffffffffffffffffffffffffffffffffffffffffffffffffffffffff1916149050919050565b60008073ffffffffffffffffffffffffffffffffffffffff166002600084815260200190815260200160002060009054906101000a900473ffffffffffffffffffffffffffffffffffffffff1673ffffffffffffffffffffffffffffffffffffffff1614159050919050565b600033905090565b816004600083815260200190815260200160002060006101000a81548173ffffffffffffffffffffffffffffffffffffffff021916908373ffffffffffffffffffffffffffffffffffffffff160217905550808273ffffffffffffffffffffffffffffffffffffffff166111a6836109df565b73ffffffffffffffffffffffffffffffffffffffff167f8c5be1e5ebec7d5bd14f71427d1e84f3dd0314c0f7b2291e5b200ac8c7c3b92560405160405180910390a45050565b6111f5826110bf565b611234576040517f08c379a000000000000000000000000000000000000000000000000000000000815260040161122b906128f4565b60405180910390fd5b8060066000848152602001908152602001600020908051906020019061125b929190611de8565b505050565b600061126b826110bf565b6112aa576040517f08c379a00000000000000000000000000000000000000000000000000000000081526004016112a190612874565b60405180910390fd5b60006112b5836109df565b90508073ffffffffffffffffffffffffffffffffffffffff168473ffffffffffffffffffffffffffffffffffffffff16148061132457508373ffffffffffffffffffffffffffffffffffffffff1661130c84610555565b73ffffffffffffffffffffffffffffffffffffffff16145b8061133557506113348185610e3a565b5b91505092915050565b8273ffffffffffffffffffffffffffffffffffffffff1661135e826109df565b73ffffffffffffffffffffffffffffffffffffffff16146113b4576040517f08c379a00000000000000000000000000000000000000000000000000000000081526004016113ab906127f4565b60405180910390fd5b600073ffffffffffffffffffffffffffffffffffffffff168273ffffffffffffffffffffffffffffffffffffffff161415611424576040517f08c379a000000000000000000000000000000000000000000000000000000000815260040161141b90612834565b60405180910390fd5b61142f838383611a2a565b61143a600082611133565b6001600360008573ffffffffffffffffffffffffffffffffffffffff1673ffffffffffffffffffffffffffffffffffffffff168152602001908152602001600020600082825461148a9190612ba5565b925050819055506001600360008473ffffffffffffffffffffffffffffffffffffffff1673ffffffffffffffffffffffffffffffffffffffff16815260200190815260200160002060008282546114e19190612b1e565b92505081905550816002600083815260200190815260200160002060006101000a81548173ffffffffffffffffffffffffffffffffffffffff021916908373ffffffffffffffffffffffffffffffffffffffff160217905550808273ffffffffffffffffffffffffffffffffffffffff168473ffffffffffffffffffffffffffffffffffffffff167fddf252ad1be2c89b69c2b068fc378daa952ba7f163c4a11628f55a4df523b3ef60405160405180910390a46115a0838383611a2f565b505050565b6001816000016000828254019250508190555050565b600081600001549050919050565b600073ffffffffffffffffffffffffffffffffffffffff168273ffffffffffffffffffffffffffffffffffffffff161415611639576040517f08c379a000000000000000000000000000000000000000000000000000000000815260040161163090612914565b60405180910390fd5b611642816110bf565b15611682576040517f08c379a000000000000000000000000000000000000000000000000000000000815260040161167990612814565b60405180910390fd5b61168e60008383611a2a565b6001600360008473ffffffffffffffffffffffffffffffffffffffff1673ffffffffffffffffffffffffffffffffffffffff16815260200190815260200160002060008282546116de9190612b1e565b92505081905550816002600083815260200190815260200160002060006101000a81548173ffffffffffffffffffffffffffffffffffffffff021916908373ffffffffffffffffffffffffffffffffffffffff160217905550808273ffffffffffffffffffffffffffffffffffffffff16600073ffffffffffffffffffffffffffffffffffffffff167fddf252ad1be2c89b69c2b068fc378daa952ba7f163c4a11628f55a4df523b3ef60405160405180910390a461179f60008383611a2f565b5050565b8173ffffffffffffffffffffffffffffffffffffffff168373ffffffffffffffffffffffffffffffffffffffff161415611812576040517f08c379a000000000000000000000000000000000000000000000000000000000815260040161180990612854565b60405180910390fd5b80600560008573ffffffffffffffffffffffffffffffffffffffff1673ffffffffffffffffffffffffffffffffffffffff16815260200190815260200160002060008473ffffffffffffffffffffffffffffffffffffffff1673ffffffffffffffffffffffffffffffffffffffff16815260200190815260200160002060006101000a81548160ff0219169083151502179055508173ffffffffffffffffffffffffffffffffffffffff168373ffffffffffffffffffffffffffffffffffffffff167f17307eab39ab6107e8899845ad3d59bd9653f200f220920489ca2b5937696c31836040516119039190612797565b60405180910390a3505050565b61191b84848461133e565b61192784848484611a34565b611966576040517f08c379a000000000000000000000000000000000000000000000000000000000815260040161195d906127d4565b60405180910390fd5b50505050565b606060405180602001604052806000815250905090565b606061198e826110bf565b6119cd576040517f08c379a00000000000000000000000000000000000000000000000000000000081526004016119c490612974565b60405180910390fd5b60006119d761196c565b905060008151116119f75760405180602001604052806000815250611a22565b80611a0184611bcb565b604051602001611a129291906126ea565b6040516020818303038152906040525b915050919050565b505050565b505050565b6000611a558473ffffffffffffffffffffffffffffffffffffffff16611d78565b15611bbe578373ffffffffffffffffffffffffffffffffffffffff1663150b7a02611a7e61112b565b8786866040518563ffffffff1660e01b8152600401611aa09493929190612729565b602060405180830381600087803b158015611aba57600080fd5b505af1925050508015611aeb57506040513d601f19601f82011682018060405250810190611ae8919061222a565b60015b611b6e573d8060008114611b1b576040519150601f19603f3d011682016040523d82523d6000602084013e611b20565b606091505b50600081511415611b66576040517f08c379a0000000000000000000000000000000000000000000000000000000008152600401611b5d906127d4565b60405180910390fd5b805181602001fd5b63150b7a0260e01b7bffffffffffffffffffffffffffffffffffffffffffffffffffffffff1916817bffffffffffffffffffffffffffffffffffffffffffffffffffffffff191614915050611bc3565b600190505b949350505050565b60606000821415611c13576040518060400160405280600181526020017f30000000000000000000000000000000000000000000000000000000000000008152509050611d73565b600082905060005b60008214611c45578080611c2e90612cf2565b915050600a82611c3e9190612b74565b9150611c1b565b60008167ffffffffffffffff811115611c87577f4e487b7100000000000000000000000000000000000000000000000000000000600052604160045260246000fd5b6040519080825280601f01601f191660200182016040528015611cb95781602001600182028036833780820191505090505b5090505b60008514611d6c57600182611cd29190612ba5565b9150600a85611ce19190612d3b565b6030611ced9190612b1e565b60f81b818381518110611d29577f4e487b7100000000000000000000000000000000000000000000000000000000600052603260045260246000fd5b60200101907effffffffffffffffffffffffffffffffffffffffffffffffffffffffffffff1916908160001a905350600a85611d659190612b74565b9450611cbd565b8093505050505b919050565b6000808273ffffffffffffffffffffffffffffffffffffffff163b119050919050565b828054828255906000526020600020908101928215611dd7579160200282015b82811115611dd6578251825591602001919060010190611dbb565b5b509050611de49190611e6e565b5090565b828054611df490612c8f565b90600052602060002090601f016020900481019282611e165760008555611e5d565b82601f10611e2f57805160ff1916838001178555611e5d565b82800160010185558215611e5d579182015b82811115611e5c578251825591602001919060010190611e41565b5b509050611e6a9190611e6e565b5090565b5b80821115611e87576000816000905550600101611e6f565b5090565b6000611e9e611e9984612a14565b6129ef565b90508083825260208201905082856020860282011115611ebd57600080fd5b60005b85811015611eed5781611ed38882612045565b845260208401935060208301925050600181019050611ec0565b5050509392505050565b6000611f0a611f0584612a40565b6129ef565b905082815260208101848484011115611f2257600080fd5b611f2d848285612c4d565b509392505050565b6000611f48611f4384612a71565b6129ef565b905082815260208101848484011115611f6057600080fd5b611f6b848285612c4d565b509392505050565b600081359050611f82816132b7565b92915050565b600082601f830112611f9957600080fd5b8135611fa9848260208601611e8b565b91505092915050565b600081359050611fc1816132ce565b92915050565b600081359050611fd6816132e5565b92915050565b600081519050611feb816132e5565b92915050565b600082601f83011261200257600080fd5b8135612012848260208601611ef7565b91505092915050565b600082601f83011261202c57600080fd5b813561203c848260208601611f35565b91505092915050565b600081359050612054816132fc565b92915050565b60006020828403121561206c57600080fd5b600061207a84828501611f73565b91505092915050565b6000806040838503121561209657600080fd5b60006120a485828601611f73565b92505060206120b585828601611f73565b9150509250929050565b6000806000606084860312156120d457600080fd5b60006120e286828701611f73565b93505060206120f386828701611f73565b925050604061210486828701612045565b9150509250925092565b6000806000806080858703121561212457600080fd5b600061213287828801611f73565b945050602061214387828801611f73565b935050604061215487828801612045565b925050606085013567ffffffffffffffff81111561217157600080fd5b61217d87828801611ff1565b91505092959194509250565b6000806040838503121561219c57600080fd5b60006121aa85828601611f73565b92505060206121bb85828601611fb2565b9150509250929050565b600080604083850312156121d857600080fd5b60006121e685828601611f73565b92505060206121f785828601612045565b9150509250929050565b60006020828403121561221357600080fd5b600061222184828501611fc7565b91505092915050565b60006020828403121561223c57600080fd5b600061224a84828501611fdc565b91505092915050565b60006020828403121561226557600080fd5b600082013567ffffffffffffffff81111561227f57600080fd5b61228b8482850161201b565b91505092915050565b6000602082840312156122a657600080fd5b60006122b484828501612045565b91505092915050565b600080604083850312156122d057600080fd5b60006122de85828601612045565b925050602083013567ffffffffffffffff8111156122fb57600080fd5b61230785828601611f88565b9150509250929050565b6000806040838503121561232457600080fd5b600061233285828601612045565b925050602083013567ffffffffffffffff81111561234f57600080fd5b61235b8582860161201b565b9150509250929050565b600061237183836126cc565b60208301905092915050565b61238681612bd9565b82525050565b600061239782612ab2565b6123a18185612ae0565b93506123ac83612aa2565b8060005b838110156123dd5781516123c48882612365565b97506123cf83612ad3565b9250506001810190506123b0565b5085935050505092915050565b6123f381612beb565b82525050565b600061240482612abd565b61240e8185612af1565b935061241e818560208601612c5c565b61242781612e28565b840191505092915050565b600061243d82612ac8565b6124478185612b02565b9350612457818560208601612c5c565b61246081612e28565b840191505092915050565b600061247682612ac8565b6124808185612b13565b9350612490818560208601612c5c565b80840191505092915050565b60006124a9603283612b02565b91506124b482612e39565b604082019050919050565b60006124cc602583612b02565b91506124d782612e88565b604082019050919050565b60006124ef601c83612b02565b91506124fa82612ed7565b602082019050919050565b6000612512602483612b02565b915061251d82612f00565b604082019050919050565b6000612535601983612b02565b915061254082612f4f565b602082019050919050565b6000612558602c83612b02565b915061256382612f78565b604082019050919050565b600061257b603883612b02565b915061258682612fc7565b604082019050919050565b600061259e602a83612b02565b91506125a982613016565b604082019050919050565b60006125c1602983612b02565b91506125cc82613065565b604082019050919050565b60006125e4602e83612b02565b91506125ef826130b4565b604082019050919050565b6000612607602083612b02565b915061261282613103565b602082019050919050565b600061262a603183612b02565b91506126358261312c565b604082019050919050565b600061264d602c83612b02565b91506126588261317b565b604082019050919050565b6000612670602f83612b02565b915061267b826131ca565b604082019050919050565b6000612693602183612b02565b915061269e82613219565b604082019050919050565b60006126b6603183612b02565b91506126c182613268565b604082019050919050565b6126d581612c43565b82525050565b6126e481612c43565b82525050565b60006126f6828561246b565b9150612702828461246b565b91508190509392505050565b6000602082019050612723600083018461237d565b92915050565b600060808201905061273e600083018761237d565b61274b602083018661237d565b61275860408301856126db565b818103606083015261276a81846123f9565b905095945050505050565b6000602082019050818103600083015261278f818461238c565b905092915050565b60006020820190506127ac60008301846123ea565b92915050565b600060208201905081810360008301526127cc8184612432565b905092915050565b600060208201905081810360008301526127ed8161249c565b9050919050565b6000602082019050818103600083015261280d816124bf565b9050919050565b6000602082019050818103600083015261282d816124e2565b9050919050565b6000602082019050818103600083015261284d81612505565b9050919050565b6000602082019050818103600083015261286d81612528565b9050919050565b6000602082019050818103600083015261288d8161254b565b9050919050565b600060208201905081810360008301526128ad8161256e565b9050919050565b600060208201905081810360008301526128cd81612591565b9050919050565b600060208201905081810360008301526128ed816125b4565b9050919050565b6000602082019050818103600083015261290d816125d7565b9050919050565b6000602082019050818103600083015261292d816125fa565b9050919050565b6000602082019050818103600083015261294d8161261d565b9050919050565b6000602082019050818103600083015261296d81612640565b9050919050565b6000602082019050818103600083015261298d81612663565b9050919050565b600060208201905081810360008301526129ad81612686565b9050919050565b600060208201905081810360008301526129cd816126a9565b9050919050565b60006020820190506129e960008301846126db565b92915050565b60006129f9612a0a565b9050612a058282612cc1565b919050565b6000604051905090565b600067ffffffffffffffff821115612a2f57612a2e612df9565b5b602082029050602081019050919050565b600067ffffffffffffffff821115612a5b57612a5a612df9565b5b612a6482612e28565b9050602081019050919050565b600067ffffffffffffffff821115612a8c57612a8b612df9565b5b612a9582612e28565b9050602081019050919050565b6000819050602082019050919050565b600081519050919050565b600081519050919050565b600081519050919050565b6000602082019050919050565b600082825260208201905092915050565b600082825260208201905092915050565b600082825260208201905092915050565b600081905092915050565b6000612b2982612c43565b9150612b3483612c43565b9250827fffffffffffffffffffffffffffffffffffffffffffffffffffffffffffffffff03821115612b6957612b68612d6c565b5b828201905092915050565b6000612b7f82612c43565b9150612b8a83612c43565b925082612b9a57612b99612d9b565b5b828204905092915050565b6000612bb082612c43565b9150612bbb83612c43565b925082821015612bce57612bcd612d6c565b5b828203905092915050565b6000612be482612c23565b9050919050565b60008115159050919050565b60007fffffffff0000000000000000000000000000000000000000000000000000000082169050919050565b600073ffffffffffffffffffffffffffffffffffffffff82169050919050565b6000819050919050565b82818337600083830152505050565b60005b83811015612c7a578082015181840152602081019050612c5f565b83811115612c89576000848401525b50505050565b60006002820490506001821680612ca757607f821691505b60208210811415612cbb57612cba612dca565b5b50919050565b612cca82612e28565b810181811067ffffffffffffffff82111715612ce957612ce8612df9565b5b80604052505050565b6000612cfd82612c43565b91507fffffffffffffffffffffffffffffffffffffffffffffffffffffffffffffffff821415612d3057612d2f612d6c565b5b600182019050919050565b6000612d4682612c43565b9150612d5183612c43565b925082612d6157612d60612d9b565b5b828206905092915050565b7f4e487b7100000000000000000000000000000000000000000000000000000000600052601160045260246000fd5b7f4e487b7100000000000000000000000000000000000000000000000000000000600052601260045260246000fd5b7f4e487b7100000000000000000000000000000000000000000000000000000000600052602260045260246000fd5b7f4e487b7100000000000000000000000000000000000000000000000000000000600052604160045260246000fd5b6000601f19601f8301169050919050565b7f4552433732313a207472616e7366657220746f206e6f6e20455243373231526560008201527f63656976657220696d706c656d656e7465720000000000000000000000000000602082015250565b7f4552433732313a207472616e736665722066726f6d20696e636f72726563742060008201527f6f776e6572000000000000000000000000000000000000000000000000000000602082015250565b7f4552433732313a20746f6b656e20616c7265616479206d696e74656400000000600082015250565b7f4552433732313a207472616e7366657220746f20746865207a65726f2061646460008201527f7265737300000000000000000000000000000000000000000000000000000000602082015250565b7f4552433732313a20617070726f766520746f2063616c6c657200000000000000600082015250565b7f4552433732313a206f70657261746f7220717565727920666f72206e6f6e657860008201527f697374656e7420746f6b656e0000000000000000000000000000000000000000602082015250565b7f4552433732313a20617070726f76652063616c6c6572206973206e6f74206f7760008201527f6e6572206e6f7220617070726f76656420666f7220616c6c0000000000000000602082015250565b7f4552433732313a2062616c616e636520717565727920666f7220746865207a6560008201527f726f206164647265737300000000000000000000000000000000000000000000602082015250565b7f4552433732313a206f776e657220717565727920666f72206e6f6e657869737460008201527f656e7420746f6b656e0000000000000000000000000000000000000000000000602082015250565b7f45524337323155524953746f726167653a2055524920736574206f66206e6f6e60008201527f6578697374656e7420746f6b656e000000000000000000000000000000000000602082015250565b7f4552433732313a206d696e7420746f20746865207a65726f2061646472657373600082015250565b7f45524337323155524953746f726167653a2055524920717565727920666f722060008201527f6e6f6e6578697374656e7420746f6b656e000000000000000000000000000000602082015250565b7f4552433732313a20617070726f76656420717565727920666f72206e6f6e657860008201527f697374656e7420746f6b656e0000000000000000000000000000000000000000602082015250565b7f4552433732314d657461646174613a2055524920717565727920666f72206e6f60008201527f6e6578697374656e7420746f6b656e0000000000000000000000000000000000602082015250565b7f4552433732313a20617070726f76616c20746f2063757272656e74206f776e6560008201527f7200000000000000000000000000000000000000000000000000000000000000602082015250565b7f4552433732313a207472616e736665722063616c6c6572206973206e6f74206f60008201527f776e6572206e6f7220617070726f766564000000000000000000000000000000602082015250565b6132c081612bd9565b81146132cb57600080fd5b50565b6132d781612beb565b81146132e257600080fd5b50565b6132ee81612bf7565b81146132f957600080fd5b50565b61330581612c43565b811461331057600080fd5b5056fea2646970667358221220f52e643a8f46844eb4d51712b35cb96c67471cc9f3767bba09a8bf20bf23b67b64736f6c63430008040033",
  "linkReferences": {},
  "deployedLinkReferences": {}
}